{
  "contractName": "Ownable",
  "abi": [
    {
      "inputs": [],
      "stateMutability": "nonpayable",
      "type": "constructor"
    },
    {
      "anonymous": false,
      "inputs": [
        {
          "indexed": true,
          "internalType": "address",
          "name": "previousOwner",
          "type": "address"
        },
        {
          "indexed": true,
          "internalType": "address",
          "name": "newOwner",
          "type": "address"
        }
      ],
      "name": "OwnershipTransferred",
      "type": "event"
    },
    {
      "inputs": [],
      "name": "owner",
      "outputs": [
        {
          "internalType": "address",
          "name": "",
          "type": "address"
        }
      ],
      "stateMutability": "view",
      "type": "function"
    },
    {
      "inputs": [],
      "name": "isOwner",
      "outputs": [
        {
          "internalType": "bool",
          "name": "",
          "type": "bool"
        }
      ],
      "stateMutability": "view",
      "type": "function"
    },
    {
      "inputs": [],
      "name": "renounceOwnership",
      "outputs": [],
      "stateMutability": "nonpayable",
      "type": "function"
    },
    {
      "inputs": [
        {
          "internalType": "address",
          "name": "newOwner",
          "type": "address"
        }
      ],
      "name": "transferOwnership",
      "outputs": [],
      "stateMutability": "nonpayable",
      "type": "function"
    }
  ],
  "bytecode": "0x608060405234801561001057600080fd5b50336000806101000a81548173ffffffffffffffffffffffffffffffffffffffff021916908373ffffffffffffffffffffffffffffffffffffffff16021790555060008054906101000a900473ffffffffffffffffffffffffffffffffffffffff1673ffffffffffffffffffffffffffffffffffffffff16600073ffffffffffffffffffffffffffffffffffffffff167f8be0079c531659141344cd1fd0a4f28419497f9722a3daafe3b4186f6b6457e060405160405180910390a3610433806100db6000396000f3fe608060405234801561001057600080fd5b506004361061004c5760003560e01c8063715018a6146100515780638da5cb5b1461005b5780638f32d59b14610079578063f2fde38b14610097575b600080fd5b6100596100b3565b005b610063610182565b6040516100709190610372565b60405180910390f35b6100816101ab565b60405161008e919061038d565b60405180910390f35b6100b160048036038101906100ac919061032b565b610202565b005b6100bb6101ab565b6100c457600080fd5b600073ffffffffffffffffffffffffffffffffffffffff1660008054906101000a900473ffffffffffffffffffffffffffffffffffffffff1673ffffffffffffffffffffffffffffffffffffffff167f8be0079c531659141344cd1fd0a4f28419497f9722a3daafe3b4186f6b6457e060405160405180910390a360008060006101000a81548173ffffffffffffffffffffffffffffffffffffffff021916908373ffffffffffffffffffffffffffffffffffffffff160217905550565b60008060009054906101000a900473ffffffffffffffffffffffffffffffffffffffff16905090565b60008060009054906101000a900473ffffffffffffffffffffffffffffffffffffffff1673ffffffffffffffffffffffffffffffffffffffff163373ffffffffffffffffffffffffffffffffffffffff1614905090565b61020a6101ab565b61021357600080fd5b61021c8161021f565b50565b600073ffffffffffffffffffffffffffffffffffffffff168173ffffffffffffffffffffffffffffffffffffffff16141561025957600080fd5b8073ffffffffffffffffffffffffffffffffffffffff1660008054906101000a900473ffffffffffffffffffffffffffffffffffffffff1673ffffffffffffffffffffffffffffffffffffffff167f8be0079c531659141344cd1fd0a4f28419497f9722a3daafe3b4186f6b6457e060405160405180910390a3806000806101000a81548173ffffffffffffffffffffffffffffffffffffffff021916908373ffffffffffffffffffffffffffffffffffffffff16021790555050565b600081359050610325816103e6565b92915050565b60006020828403121561033d57600080fd5b600061034b84828501610316565b91505092915050565b61035d816103a8565b82525050565b61036c816103ba565b82525050565b60006020820190506103876000830184610354565b92915050565b60006020820190506103a26000830184610363565b92915050565b60006103b3826103c6565b9050919050565b60008115159050919050565b600073ffffffffffffffffffffffffffffffffffffffff82169050919050565b6103ef816103a8565b81146103fa57600080fd5b5056fea26469706673582212205746bf04f08367f5539c93d4fd7e35384b668ca89a34de9c58ac024a0cc6732c64736f6c63430008000033",
  "immutableReferences": {},
  "source": "pragma solidity ^0.8.0;\n\n/**\n * @title Ownable\n * @dev The Ownable contract has an owner address, and provides basic authorization control\n * functions, this simplifies the implementation of \"user permissions\".\n */\ncontract Ownable {\n    address private _owner;\n\n    event OwnershipTransferred(\n        address indexed previousOwner,\n        address indexed newOwner\n    );\n\n    /**\n     * @dev The Ownable constructor sets the original `owner` of the contract to the sender\n     * account.\n     */\n    constructor() {\n        _owner = msg.sender;\n        emit OwnershipTransferred(address(0), _owner);\n    }\n\n    /**\n     * @return the address of the owner.\n     */\n    function owner() public view returns (address) {\n        return _owner;\n    }\n\n    /**\n     * @dev Throws if called by any account other than the owner.\n     */\n    modifier onlyOwner() {\n        require(isOwner());\n        _;\n    }\n\n    /**\n     * @return true if `msg.sender` is the owner of the contract.\n     */\n    function isOwner() public view returns (bool) {\n        return msg.sender == _owner;\n    }\n\n    /**\n     * @dev Allows the current owner to relinquish control of the contract.\n     * @notice Renouncing to ownership will leave the contract without an owner.\n     * It will not be possible to call the functions with the `onlyOwner`\n     * modifier anymore.\n     */\n    function renounceOwnership() public onlyOwner {\n        emit OwnershipTransferred(_owner, address(0));\n        _owner = address(0);\n    }\n\n    /**\n     * @dev Allows the current owner to transfer control of the contract to a newOwner.\n     * @param newOwner The address to transfer ownership to.\n     */\n    function transferOwnership(address newOwner) public onlyOwner {\n        _transferOwnership(newOwner);\n    }\n\n    /**\n     * @dev Transfers control of the contract to a newOwner.\n     * @param newOwner The address to transfer ownership to.\n     */\n    function _transferOwnership(address newOwner) internal {\n        require(newOwner != address(0));\n        emit OwnershipTransferred(_owner, newOwner);\n        _owner = newOwner;\n    }\n}\n",
  "sourcePath": "/Users/alanswenson/projects/plantshop-contract/contracts/ownable.sol",
  "compiler": {
    "name": "solc",
    "version": "0.8.0+commit.c7dfd78e.Emscripten.clang"
  },
  "schemaVersion": "3.4.3",
  "updatedAt": "2021-09-09T18:19:14.136Z",
  "devdoc": {
    "details": "The Ownable contract has an owner address, and provides basic authorization control functions, this simplifies the implementation of \"user permissions\".",
    "kind": "dev",
    "methods": {
      "constructor": {
        "details": "The Ownable constructor sets the original `owner` of the contract to the sender account."
      },
      "isOwner()": {
        "returns": {
          "_0": "true if `msg.sender` is the owner of the contract."
        }
      },
      "owner()": {
        "returns": {
          "_0": "the address of the owner."
        }
      },
      "renounceOwnership()": {
        "details": "Allows the current owner to relinquish control of the contract."
      },
      "transferOwnership(address)": {
        "details": "Allows the current owner to transfer control of the contract to a newOwner.",
        "params": {
          "newOwner": "The address to transfer ownership to."
        }
      }
    },
    "title": "Ownable",
    "version": 1
  },
  "userdoc": {
    "kind": "user",
    "methods": {
      "renounceOwnership()": {
        "notice": "Renouncing to ownership will leave the contract without an owner. It will not be possible to call the functions with the `onlyOwner` modifier anymore."
      }
    },
    "version": 1
  }
}