{
  "contractName": "PlantNursery",
  "abi": [
    {
      "anonymous": false,
      "inputs": [
        {
          "indexed": false,
          "internalType": "uint256",
          "name": "plantId",
          "type": "uint256"
        },
        {
          "indexed": false,
          "internalType": "uint256",
          "name": "dna",
          "type": "uint256"
        }
      ],
      "name": "NewPlant",
      "type": "event"
    },
    {
      "anonymous": false,
      "inputs": [
        {
          "indexed": true,
          "internalType": "address",
          "name": "previousOwner",
          "type": "address"
        },
        {
          "indexed": true,
          "internalType": "address",
          "name": "newOwner",
          "type": "address"
        }
      ],
      "name": "OwnershipTransferred",
      "type": "event"
    },
    {
      "inputs": [],
      "name": "isOwner",
      "outputs": [
        {
          "internalType": "bool",
          "name": "",
          "type": "bool"
        }
      ],
      "stateMutability": "view",
      "type": "function"
    },
    {
      "inputs": [],
      "name": "owner",
      "outputs": [
        {
          "internalType": "address",
          "name": "",
          "type": "address"
        }
      ],
      "stateMutability": "view",
      "type": "function"
    },
    {
      "inputs": [
        {
          "internalType": "uint256",
          "name": "",
          "type": "uint256"
        }
      ],
      "name": "plantToOwner",
      "outputs": [
        {
          "internalType": "address",
          "name": "",
          "type": "address"
        }
      ],
      "stateMutability": "view",
      "type": "function"
    },
    {
      "inputs": [
        {
          "internalType": "uint256",
          "name": "",
          "type": "uint256"
        }
      ],
      "name": "plants",
      "outputs": [
        {
          "internalType": "uint256",
          "name": "dna",
          "type": "uint256"
        }
      ],
      "stateMutability": "view",
      "type": "function"
    },
    {
      "inputs": [],
      "name": "renounceOwnership",
      "outputs": [],
      "stateMutability": "nonpayable",
      "type": "function"
    },
    {
      "inputs": [
        {
          "internalType": "address",
          "name": "newOwner",
          "type": "address"
        }
      ],
      "name": "transferOwnership",
      "outputs": [],
      "stateMutability": "nonpayable",
      "type": "function"
    },
    {
      "inputs": [
        {
          "internalType": "string",
          "name": "_name",
          "type": "string"
        }
      ],
      "name": "createRandomPlant",
      "outputs": [],
      "stateMutability": "nonpayable",
      "type": "function"
    }
  ],
  "bytecode": "0x60806040526010600155600154600a6200001a919062000147565b6002553480156200002a57600080fd5b50336000806101000a81548173ffffffffffffffffffffffffffffffffffffffff021916908373ffffffffffffffffffffffffffffffffffffffff16021790555060008054906101000a900473ffffffffffffffffffffffffffffffffffffffff1673ffffffffffffffffffffffffffffffffffffffff16600073ffffffffffffffffffffffffffffffffffffffff167f8be0079c531659141344cd1fd0a4f28419497f9722a3daafe3b4186f6b6457e060405160405180910390a3620002ca565b6000808291508390505b60018511156200013e578086048111156200011657620001156200028e565b5b6001851615620001265780820291505b80810290506200013685620002bd565b9450620000f6565b94509492505050565b6000620001548262000284565b9150620001618362000284565b9250620001907fffffffffffffffffffffffffffffffffffffffffffffffffffffffffffffffff848462000198565b905092915050565b600082620001aa57600190506200027d565b81620001ba57600090506200027d565b8160018114620001d35760028114620001de5762000214565b60019150506200027d565b60ff841115620001f357620001f26200028e565b5b8360020a9150848211156200020d576200020c6200028e565b5b506200027d565b5060208310610133831016604e8410600b84101617156200024e5782820a9050838111156200024857620002476200028e565b5b6200027d565b6200025d8484846001620000ec565b925090508184048111156200027757620002766200028e565b5b81810290505b9392505050565b6000819050919050565b7f4e487b7100000000000000000000000000000000000000000000000000000000600052601160045260246000fd5b60008160011c9050919050565b610b3380620002da6000396000f3fe608060405234801561001057600080fd5b506004361061007d5760003560e01c80638dd2361c1161005b5780638dd2361c146100c65780638f32d59b146100f65780639afcad0014610114578063f2fde38b146101445761007d565b80636ff7c88d14610082578063715018a61461009e5780638da5cb5b146100a8575b600080fd5b61009c6004803603810190610097919061072d565b610160565b005b6100a66101e0565b005b6100b06102af565b6040516100bd919061080c565b60405180910390f35b6100e060048036038101906100db919061076e565b6102d8565b6040516100ed9190610842565b60405180910390f35b6100fe610302565b60405161010b9190610827565b60405180910390f35b61012e6004803603810190610129919061076e565b610359565b60405161013b919061080c565b60405180910390f35b61015e60048036038101906101599190610704565b61038c565b005b6000600560003373ffffffffffffffffffffffffffffffffffffffff1673ffffffffffffffffffffffffffffffffffffffff16815260200190815260200160002054146101ac57600080fd5b60006101b7826103a9565b90506064816101c69190610a11565b816101d19190610953565b90506101dc816103ee565b5050565b6101e8610302565b6101f157600080fd5b600073ffffffffffffffffffffffffffffffffffffffff1660008054906101000a900473ffffffffffffffffffffffffffffffffffffffff1673ffffffffffffffffffffffffffffffffffffffff167f8be0079c531659141344cd1fd0a4f28419497f9722a3daafe3b4186f6b6457e060405160405180910390a360008060006101000a81548173ffffffffffffffffffffffffffffffffffffffff021916908373ffffffffffffffffffffffffffffffffffffffff160217905550565b60008060009054906101000a900473ffffffffffffffffffffffffffffffffffffffff16905090565b600381815481106102e857600080fd5b906000526020600020016000915090508060000154905081565b60008060009054906101000a900473ffffffffffffffffffffffffffffffffffffffff1673ffffffffffffffffffffffffffffffffffffffff163373ffffffffffffffffffffffffffffffffffffffff1614905090565b60046020528060005260406000206000915054906101000a900473ffffffffffffffffffffffffffffffffffffffff1681565b610394610302565b61039d57600080fd5b6103a681610529565b50565b600080826040516020016103bd91906107f5565b6040516020818303038152906040528051906020012060001c9050600254816103e69190610a11565b915050919050565b600360405180602001604052808381525090806001815401808255809150506001900390600052602060002001600090919091909150600082015181600001555050600060016003805490506104449190610953565b9050336004600083815260200190815260200160002060006101000a81548173ffffffffffffffffffffffffffffffffffffffff021916908373ffffffffffffffffffffffffffffffffffffffff1602179055506104eb6001600560003373ffffffffffffffffffffffffffffffffffffffff1673ffffffffffffffffffffffffffffffffffffffff1681526020019081526020016000205461062090919063ffffffff16565b507f41e789ec18879325a978a68acbca4bb202fb081eea29445662c30c61ad40c832818360405161051d92919061085d565b60405180910390a15050565b600073ffffffffffffffffffffffffffffffffffffffff168173ffffffffffffffffffffffffffffffffffffffff16141561056357600080fd5b8073ffffffffffffffffffffffffffffffffffffffff1660008054906101000a900473ffffffffffffffffffffffffffffffffffffffff1673ffffffffffffffffffffffffffffffffffffffff167f8be0079c531659141344cd1fd0a4f28419497f9722a3daafe3b4186f6b6457e060405160405180910390a3806000806101000a81548173ffffffffffffffffffffffffffffffffffffffff021916908373ffffffffffffffffffffffffffffffffffffffff16021790555050565b600080828461062f91906108fd565b905083811015610668577f4e487b7100000000000000000000000000000000000000000000000000000000600052600160045260246000fd5b8091505092915050565b6000610685610680846108b7565b610886565b90508281526020810184848401111561069d57600080fd5b6106a88482856109cf565b509392505050565b6000813590506106bf81610acf565b92915050565b600082601f8301126106d657600080fd5b81356106e6848260208601610672565b91505092915050565b6000813590506106fe81610ae6565b92915050565b60006020828403121561071657600080fd5b6000610724848285016106b0565b91505092915050565b60006020828403121561073f57600080fd5b600082013567ffffffffffffffff81111561075957600080fd5b610765848285016106c5565b91505092915050565b60006020828403121561078057600080fd5b600061078e848285016106ef565b91505092915050565b6107a081610987565b82525050565b6107af81610999565b82525050565b60006107c0826108e7565b6107ca81856108f2565b93506107da8185602086016109de565b80840191505092915050565b6107ef816109c5565b82525050565b600061080182846107b5565b915081905092915050565b60006020820190506108216000830184610797565b92915050565b600060208201905061083c60008301846107a6565b92915050565b600060208201905061085760008301846107e6565b92915050565b600060408201905061087260008301856107e6565b61087f60208301846107e6565b9392505050565b6000604051905081810181811067ffffffffffffffff821117156108ad576108ac610aa0565b5b8060405250919050565b600067ffffffffffffffff8211156108d2576108d1610aa0565b5b601f19601f8301169050602081019050919050565b600081519050919050565b600081905092915050565b6000610908826109c5565b9150610913836109c5565b9250827fffffffffffffffffffffffffffffffffffffffffffffffffffffffffffffffff0382111561094857610947610a42565b5b828201905092915050565b600061095e826109c5565b9150610969836109c5565b92508282101561097c5761097b610a42565b5b828203905092915050565b6000610992826109a5565b9050919050565b60008115159050919050565b600073ffffffffffffffffffffffffffffffffffffffff82169050919050565b6000819050919050565b82818337600083830152505050565b60005b838110156109fc5780820151818401526020810190506109e1565b83811115610a0b576000848401525b50505050565b6000610a1c826109c5565b9150610a27836109c5565b925082610a3757610a36610a71565b5b828206905092915050565b7f4e487b7100000000000000000000000000000000000000000000000000000000600052601160045260246000fd5b7f4e487b7100000000000000000000000000000000000000000000000000000000600052601260045260246000fd5b7f4e487b7100000000000000000000000000000000000000000000000000000000600052604160045260246000fd5b610ad881610987565b8114610ae357600080fd5b50565b610aef816109c5565b8114610afa57600080fd5b5056fea2646970667358221220bf4189e1555c4f509611807c99b9f93a8eeccac8328a4c77780f75054aee31e464736f6c63430008000033",
  "immutableReferences": {},
  "source": "pragma solidity ^0.8.0;\n\nimport \"./ownable.sol\";\nimport \"./safemath.sol\";\n\ncontract PlantNursery is Ownable {\n    using SafeMath for uint256;\n    event NewPlant(uint256 plantId, uint256 dna);\n\n    uint256 dnaDigits = 16;\n    uint256 dnaModulus = 10**dnaDigits;\n\n    struct Plant {\n        uint256 dna;\n    }\n\n    Plant[] public plants;\n\n    mapping(uint256 => address) public plantToOwner;\n    mapping(address => uint256) ownerPlantCount;\n\n    function _createPlant(uint256 _dna) internal {\n        plants.push(Plant(_dna));\n        uint256 id = plants.length - 1;\n        plantToOwner[id] = msg.sender;\n        ownerPlantCount[msg.sender].add(1);\n        emit NewPlant(id, _dna);\n    }\n\n    function _generateRandomDna(string memory _str)\n        private\n        view\n        returns (uint256)\n    {\n        uint256 rand = uint256(keccak256(abi.encodePacked(_str)));\n        return rand % dnaModulus;\n    }\n\n    // TODO: dont rely on a name for rand dna\n    function createRandomPlant(string memory _name) public {\n        require(ownerPlantCount[msg.sender] == 0);\n        uint256 randDna = _generateRandomDna(_name);\n        randDna = randDna - (randDna % 100);\n        _createPlant(randDna);\n    }\n}\n",
  "sourcePath": "/Users/alanswenson/projects/plantshop-contract/contracts/plantnursery.sol",
  "compiler": {
    "name": "solc",
    "version": "0.8.0+commit.c7dfd78e.Emscripten.clang"
  },
  "schemaVersion": "3.4.3",
  "updatedAt": "2021-09-10T02:05:06.916Z",
  "devdoc": {
    "kind": "dev",
    "methods": {
      "isOwner()": {
        "returns": {
          "_0": "true if `msg.sender` is the owner of the contract."
        }
      },
      "owner()": {
        "returns": {
          "_0": "the address of the owner."
        }
      },
      "renounceOwnership()": {
        "details": "Allows the current owner to relinquish control of the contract."
      },
      "transferOwnership(address)": {
        "details": "Allows the current owner to transfer control of the contract to a newOwner.",
        "params": {
          "newOwner": "The address to transfer ownership to."
        }
      }
    },
    "version": 1
  },
  "userdoc": {
    "kind": "user",
    "methods": {
      "renounceOwnership()": {
        "notice": "Renouncing to ownership will leave the contract without an owner. It will not be possible to call the functions with the `onlyOwner` modifier anymore."
      }
    },
    "version": 1
  }
}