{
  "contractName": "PlantHelper",
  "abi": [
    {
      "anonymous": false,
      "inputs": [
        {
          "indexed": false,
          "internalType": "uint256",
          "name": "plantId",
          "type": "uint256"
        },
        {
          "indexed": false,
          "internalType": "uint256",
          "name": "dna",
          "type": "uint256"
        }
      ],
      "name": "NewPlant",
      "type": "event"
    },
    {
      "anonymous": false,
      "inputs": [
        {
          "indexed": true,
          "internalType": "address",
          "name": "previousOwner",
          "type": "address"
        },
        {
          "indexed": true,
          "internalType": "address",
          "name": "newOwner",
          "type": "address"
        }
      ],
      "name": "OwnershipTransferred",
      "type": "event"
    },
    {
      "inputs": [
        {
          "internalType": "string",
          "name": "_name",
          "type": "string"
        }
      ],
      "name": "createRandomPlant",
      "outputs": [],
      "stateMutability": "nonpayable",
      "type": "function"
    },
    {
      "inputs": [],
      "name": "isOwner",
      "outputs": [
        {
          "internalType": "bool",
          "name": "",
          "type": "bool"
        }
      ],
      "stateMutability": "view",
      "type": "function"
    },
    {
      "inputs": [],
      "name": "owner",
      "outputs": [
        {
          "internalType": "address",
          "name": "",
          "type": "address"
        }
      ],
      "stateMutability": "view",
      "type": "function"
    },
    {
      "inputs": [
        {
          "internalType": "uint256",
          "name": "",
          "type": "uint256"
        }
      ],
      "name": "plantToOwner",
      "outputs": [
        {
          "internalType": "address",
          "name": "",
          "type": "address"
        }
      ],
      "stateMutability": "view",
      "type": "function"
    },
    {
      "inputs": [
        {
          "internalType": "uint256",
          "name": "",
          "type": "uint256"
        }
      ],
      "name": "plants",
      "outputs": [
        {
          "internalType": "uint256",
          "name": "dna",
          "type": "uint256"
        }
      ],
      "stateMutability": "view",
      "type": "function"
    },
    {
      "inputs": [],
      "name": "renounceOwnership",
      "outputs": [],
      "stateMutability": "nonpayable",
      "type": "function"
    },
    {
      "inputs": [
        {
          "internalType": "address",
          "name": "newOwner",
          "type": "address"
        }
      ],
      "name": "transferOwnership",
      "outputs": [],
      "stateMutability": "nonpayable",
      "type": "function"
    },
    {
      "inputs": [],
      "name": "withdraw",
      "outputs": [],
      "stateMutability": "nonpayable",
      "type": "function"
    },
    {
      "inputs": [
        {
          "internalType": "address",
          "name": "_owner",
          "type": "address"
        }
      ],
      "name": "getPlantsByOwner",
      "outputs": [
        {
          "internalType": "uint256[]",
          "name": "",
          "type": "uint256[]"
        }
      ],
      "stateMutability": "view",
      "type": "function"
    },
    {
      "inputs": [],
      "name": "getPlantsOwners",
      "outputs": [
        {
          "components": [
            {
              "internalType": "uint256",
              "name": "dna",
              "type": "uint256"
            }
          ],
          "internalType": "struct PlantNursery.Plant[]",
          "name": "",
          "type": "tuple[]"
        }
      ],
      "stateMutability": "view",
      "type": "function"
    }
  ],
  "bytecode": "0x60806040526010600155600154600a6200001a919062000147565b6002553480156200002a57600080fd5b50336000806101000a81548173ffffffffffffffffffffffffffffffffffffffff021916908373ffffffffffffffffffffffffffffffffffffffff16021790555060008054906101000a900473ffffffffffffffffffffffffffffffffffffffff1673ffffffffffffffffffffffffffffffffffffffff16600073ffffffffffffffffffffffffffffffffffffffff167f8be0079c531659141344cd1fd0a4f28419497f9722a3daafe3b4186f6b6457e060405160405180910390a3620002ca565b6000808291508390505b60018511156200013e578086048111156200011657620001156200028e565b5b6001851615620001265780820291505b80810290506200013685620002bd565b9450620000f6565b94509492505050565b6000620001548262000284565b9150620001618362000284565b9250620001907fffffffffffffffffffffffffffffffffffffffffffffffffffffffffffffffff848462000198565b905092915050565b600082620001aa57600190506200027d565b81620001ba57600090506200027d565b8160018114620001d35760028114620001de5762000214565b60019150506200027d565b60ff841115620001f357620001f26200028e565b5b8360020a9150848211156200020d576200020c6200028e565b5b506200027d565b5060208310610133831016604e8410600b84101617156200024e5782820a9050838111156200024857620002476200028e565b5b6200027d565b6200025d8484846001620000ec565b925090508184048111156200027757620002766200028e565b5b81810290505b9392505050565b6000819050919050565b7f4e487b7100000000000000000000000000000000000000000000000000000000600052601160045260246000fd5b60008160011c9050919050565b61103480620002da6000396000f3fe608060405234801561001057600080fd5b506004361061009e5760003560e01c80638da5cb5b116100665780638da5cb5b146101215780638dd2361c1461013f5780638f32d59b1461016f5780639afcad001461018d578063f2fde38b146101bd5761009e565b80631123d4de146100a35780633ccfd60b146100d35780634fd07a27146100dd5780636ff7c88d146100fb578063715018a614610117575b600080fd5b6100bd60048036038101906100b891906109ef565b6101d9565b6040516100ca9190610c4b565b60405180910390f35b6100db61037f565b005b6100e56103e6565b6040516100f29190610c29565b60405180910390f35b61011560048036038101906101109190610a18565b61044b565b005b61011f6104cb565b005b61012961059a565b6040516101369190610c0e565b60405180910390f35b61015960048036038101906101549190610a59565b6105c3565b6040516101669190610c88565b60405180910390f35b6101776105ed565b6040516101849190610c6d565b60405180910390f35b6101a760048036038101906101a29190610a59565b610644565b6040516101b49190610c0e565b60405180910390f35b6101d760048036038101906101d291906109ef565b610677565b005b60606000600560008473ffffffffffffffffffffffffffffffffffffffff1673ffffffffffffffffffffffffffffffffffffffff1681526020019081526020016000205467ffffffffffffffff81111561025c577f4e487b7100000000000000000000000000000000000000000000000000000000600052604160045260246000fd5b60405190808252806020026020018201604052801561028a5781602001602082028036833780820191505090505b5090506000805b600380549050811015610374578473ffffffffffffffffffffffffffffffffffffffff166004600083815260200190815260200160002060009054906101000a900473ffffffffffffffffffffffffffffffffffffffff1673ffffffffffffffffffffffffffffffffffffffff161415610361578083838151811061033f577f4e487b7100000000000000000000000000000000000000000000000000000000600052603260045260246000fd5b60200260200101818152505061035f60018361069490919063ffffffff16565b505b808061036c90610ec9565b915050610291565b508192505050919050565b6103876105ed565b61039057600080fd5b600061039a61059a565b90508073ffffffffffffffffffffffffffffffffffffffff166108fc479081150290604051600060405180830381858888f193505050501580156103e2573d6000803e3d6000fd5b5050565b60606003805480602002602001604051908101604052809291908181526020016000905b82821015610442578382906000526020600020016040518060200160405290816000820154815250508152602001906001019061040a565b50505050905090565b6000600560003373ffffffffffffffffffffffffffffffffffffffff1673ffffffffffffffffffffffffffffffffffffffff168152602001908152602001600020541461049757600080fd5b60006104a2826106e6565b90506064816104b19190610f12565b816104bc9190610e0b565b90506104c78161072b565b5050565b6104d36105ed565b6104dc57600080fd5b600073ffffffffffffffffffffffffffffffffffffffff1660008054906101000a900473ffffffffffffffffffffffffffffffffffffffff1673ffffffffffffffffffffffffffffffffffffffff167f8be0079c531659141344cd1fd0a4f28419497f9722a3daafe3b4186f6b6457e060405160405180910390a360008060006101000a81548173ffffffffffffffffffffffffffffffffffffffff021916908373ffffffffffffffffffffffffffffffffffffffff160217905550565b60008060009054906101000a900473ffffffffffffffffffffffffffffffffffffffff16905090565b600381815481106105d357600080fd5b906000526020600020016000915090508060000154905081565b60008060009054906101000a900473ffffffffffffffffffffffffffffffffffffffff1673ffffffffffffffffffffffffffffffffffffffff163373ffffffffffffffffffffffffffffffffffffffff1614905090565b60046020528060005260406000206000915054906101000a900473ffffffffffffffffffffffffffffffffffffffff1681565b61067f6105ed565b61068857600080fd5b61069181610866565b50565b60008082846106a39190610db5565b9050838110156106dc577f4e487b7100000000000000000000000000000000000000000000000000000000600052600160045260246000fd5b8091505092915050565b600080826040516020016106fa9190610bf7565b6040516020818303038152906040528051906020012060001c9050600254816107239190610f12565b915050919050565b600360405180602001604052808381525090806001815401808255809150506001900390600052602060002001600090919091909150600082015181600001555050600060016003805490506107819190610e0b565b9050336004600083815260200190815260200160002060006101000a81548173ffffffffffffffffffffffffffffffffffffffff021916908373ffffffffffffffffffffffffffffffffffffffff1602179055506108286001600560003373ffffffffffffffffffffffffffffffffffffffff1673ffffffffffffffffffffffffffffffffffffffff1681526020019081526020016000205461069490919063ffffffff16565b507f41e789ec18879325a978a68acbca4bb202fb081eea29445662c30c61ad40c832818360405161085a929190610ca3565b60405180910390a15050565b600073ffffffffffffffffffffffffffffffffffffffff168173ffffffffffffffffffffffffffffffffffffffff1614156108a057600080fd5b8073ffffffffffffffffffffffffffffffffffffffff1660008054906101000a900473ffffffffffffffffffffffffffffffffffffffff1673ffffffffffffffffffffffffffffffffffffffff167f8be0079c531659141344cd1fd0a4f28419497f9722a3daafe3b4186f6b6457e060405160405180910390a3806000806101000a81548173ffffffffffffffffffffffffffffffffffffffff021916908373ffffffffffffffffffffffffffffffffffffffff16021790555050565b600061097061096b84610cfd565b610ccc565b90508281526020810184848401111561098857600080fd5b610993848285610e87565b509392505050565b6000813590506109aa81610fd0565b92915050565b600082601f8301126109c157600080fd5b81356109d184826020860161095d565b91505092915050565b6000813590506109e981610fe7565b92915050565b600060208284031215610a0157600080fd5b6000610a0f8482850161099b565b91505092915050565b600060208284031215610a2a57600080fd5b600082013567ffffffffffffffff811115610a4457600080fd5b610a50848285016109b0565b91505092915050565b600060208284031215610a6b57600080fd5b6000610a79848285016109da565b91505092915050565b6000610a8e8383610bbd565b60208301905092915050565b6000610aa68383610bd9565b60208301905092915050565b610abb81610e3f565b82525050565b6000610acc82610d4d565b610ad68185610d88565b9350610ae183610d2d565b8060005b83811015610b12578151610af98882610a82565b9750610b0483610d6e565b925050600181019050610ae5565b5085935050505092915050565b6000610b2a82610d58565b610b348185610d99565b9350610b3f83610d3d565b8060005b83811015610b70578151610b578882610a9a565b9750610b6283610d7b565b925050600181019050610b43565b5085935050505092915050565b610b8681610e51565b82525050565b6000610b9782610d63565b610ba18185610daa565b9350610bb1818560208601610e96565b80840191505092915050565b602082016000820151610bd36000850182610bd9565b50505050565b610be281610e7d565b82525050565b610bf181610e7d565b82525050565b6000610c038284610b8c565b915081905092915050565b6000602082019050610c236000830184610ab2565b92915050565b60006020820190508181036000830152610c438184610ac1565b905092915050565b60006020820190508181036000830152610c658184610b1f565b905092915050565b6000602082019050610c826000830184610b7d565b92915050565b6000602082019050610c9d6000830184610be8565b92915050565b6000604082019050610cb86000830185610be8565b610cc56020830184610be8565b9392505050565b6000604051905081810181811067ffffffffffffffff82111715610cf357610cf2610fa1565b5b8060405250919050565b600067ffffffffffffffff821115610d1857610d17610fa1565b5b601f19601f8301169050602081019050919050565b6000819050602082019050919050565b6000819050602082019050919050565b600081519050919050565b600081519050919050565b600081519050919050565b6000602082019050919050565b6000602082019050919050565b600082825260208201905092915050565b600082825260208201905092915050565b600081905092915050565b6000610dc082610e7d565b9150610dcb83610e7d565b9250827fffffffffffffffffffffffffffffffffffffffffffffffffffffffffffffffff03821115610e0057610dff610f43565b5b828201905092915050565b6000610e1682610e7d565b9150610e2183610e7d565b925082821015610e3457610e33610f43565b5b828203905092915050565b6000610e4a82610e5d565b9050919050565b60008115159050919050565b600073ffffffffffffffffffffffffffffffffffffffff82169050919050565b6000819050919050565b82818337600083830152505050565b60005b83811015610eb4578082015181840152602081019050610e99565b83811115610ec3576000848401525b50505050565b6000610ed482610e7d565b91507fffffffffffffffffffffffffffffffffffffffffffffffffffffffffffffffff821415610f0757610f06610f43565b5b600182019050919050565b6000610f1d82610e7d565b9150610f2883610e7d565b925082610f3857610f37610f72565b5b828206905092915050565b7f4e487b7100000000000000000000000000000000000000000000000000000000600052601160045260246000fd5b7f4e487b7100000000000000000000000000000000000000000000000000000000600052601260045260246000fd5b7f4e487b7100000000000000000000000000000000000000000000000000000000600052604160045260246000fd5b610fd981610e3f565b8114610fe457600080fd5b50565b610ff081610e7d565b8114610ffb57600080fd5b5056fea2646970667358221220652b0e16c016c93df6468c39e4cf9b560a3293ac2a94a1c87c9ba73b41b37e1964736f6c63430008000033",
  "immutableReferences": {},
  "source": "pragma solidity ^0.8.0;\n\nimport \"./plantbreeding.sol\";\nimport \"./safemath.sol\";\n\ncontract PlantHelper is PlantBreeding {\n    using SafeMath for uint256;\n\n    function withdraw() external onlyOwner {\n        address _owner = owner();\n        payable(_owner).transfer(address(this).balance);\n    }\n\n    function getPlantsByOwner(address _owner)\n        external\n        view\n        returns (uint256[] memory)\n    {\n        uint256[] memory result = new uint256[](ownerPlantCount[_owner]);\n        uint256 counter = 0;\n        for (uint256 i = 0; i < plants.length; i++) {\n            if (plantToOwner[i] == _owner) {\n                result[counter] = i;\n                counter.add(1);\n            }\n        }\n        return result;\n    }\n\n    function getPlantsOwners() public view returns (Plant[] memory) {\n        return plants;\n    }\n}\n",
  "sourcePath": "/Users/alanswenson/projects/plantshop-contract/contracts/planthelper.sol",
  "compiler": {
    "name": "solc",
    "version": "0.8.0+commit.c7dfd78e.Emscripten.clang"
  },
  "schemaVersion": "3.4.3",
  "updatedAt": "2021-09-10T02:19:25.309Z",
  "devdoc": {
    "kind": "dev",
    "methods": {
      "isOwner()": {
        "returns": {
          "_0": "true if `msg.sender` is the owner of the contract."
        }
      },
      "owner()": {
        "returns": {
          "_0": "the address of the owner."
        }
      },
      "renounceOwnership()": {
        "details": "Allows the current owner to relinquish control of the contract."
      },
      "transferOwnership(address)": {
        "details": "Allows the current owner to transfer control of the contract to a newOwner.",
        "params": {
          "newOwner": "The address to transfer ownership to."
        }
      }
    },
    "version": 1
  },
  "userdoc": {
    "kind": "user",
    "methods": {
      "renounceOwnership()": {
        "notice": "Renouncing to ownership will leave the contract without an owner. It will not be possible to call the functions with the `onlyOwner` modifier anymore."
      }
    },
    "version": 1
  }
}