{
  "contractName": "PlantShop",
  "abi": [
    {
      "inputs": [],
      "stateMutability": "nonpayable",
      "type": "constructor"
    },
    {
      "anonymous": false,
      "inputs": [
        {
          "indexed": true,
          "internalType": "address",
          "name": "owner",
          "type": "address"
        },
        {
          "indexed": true,
          "internalType": "address",
          "name": "approved",
          "type": "address"
        },
        {
          "indexed": true,
          "internalType": "uint256",
          "name": "tokenId",
          "type": "uint256"
        }
      ],
      "name": "Approval",
      "type": "event"
    },
    {
      "anonymous": false,
      "inputs": [
        {
          "indexed": true,
          "internalType": "address",
          "name": "owner",
          "type": "address"
        },
        {
          "indexed": true,
          "internalType": "address",
          "name": "operator",
          "type": "address"
        },
        {
          "indexed": false,
          "internalType": "bool",
          "name": "approved",
          "type": "bool"
        }
      ],
      "name": "ApprovalForAll",
      "type": "event"
    },
    {
      "anonymous": false,
      "inputs": [
        {
          "indexed": false,
          "internalType": "uint256",
          "name": "plantId",
          "type": "uint256"
        },
        {
          "indexed": false,
          "internalType": "uint256",
          "name": "dna",
          "type": "uint256"
        }
      ],
      "name": "NewPlant",
      "type": "event"
    },
    {
      "anonymous": false,
      "inputs": [
        {
          "indexed": true,
          "internalType": "address",
          "name": "previousOwner",
          "type": "address"
        },
        {
          "indexed": true,
          "internalType": "address",
          "name": "newOwner",
          "type": "address"
        }
      ],
      "name": "OwnershipTransferred",
      "type": "event"
    },
    {
      "anonymous": false,
      "inputs": [
        {
          "indexed": true,
          "internalType": "address",
          "name": "from",
          "type": "address"
        },
        {
          "indexed": true,
          "internalType": "address",
          "name": "to",
          "type": "address"
        },
        {
          "indexed": true,
          "internalType": "uint256",
          "name": "tokenId",
          "type": "uint256"
        }
      ],
      "name": "Transfer",
      "type": "event"
    },
    {
      "inputs": [
        {
          "internalType": "address",
          "name": "to",
          "type": "address"
        },
        {
          "internalType": "uint256",
          "name": "tokenId",
          "type": "uint256"
        }
      ],
      "name": "approve",
      "outputs": [],
      "stateMutability": "nonpayable",
      "type": "function"
    },
    {
      "inputs": [
        {
          "internalType": "address",
          "name": "owner",
          "type": "address"
        }
      ],
      "name": "balanceOf",
      "outputs": [
        {
          "internalType": "uint256",
          "name": "",
          "type": "uint256"
        }
      ],
      "stateMutability": "view",
      "type": "function",
      "constant": true
    },
    {
      "inputs": [
        {
          "internalType": "string",
          "name": "_name",
          "type": "string"
        }
      ],
      "name": "createRandomPlant",
      "outputs": [],
      "stateMutability": "nonpayable",
      "type": "function"
    },
    {
      "inputs": [
        {
          "internalType": "uint256",
          "name": "tokenId",
          "type": "uint256"
        }
      ],
      "name": "getApproved",
      "outputs": [
        {
          "internalType": "address",
          "name": "",
          "type": "address"
        }
      ],
      "stateMutability": "view",
      "type": "function",
      "constant": true
    },
    {
      "inputs": [
        {
          "internalType": "address",
          "name": "_owner",
          "type": "address"
        }
      ],
      "name": "getPlantsByOwner",
      "outputs": [
        {
          "internalType": "uint256[]",
          "name": "",
          "type": "uint256[]"
        }
      ],
      "stateMutability": "view",
      "type": "function",
      "constant": true
    },
    {
      "inputs": [],
      "name": "getPlantsOwners",
      "outputs": [
        {
          "components": [
            {
              "internalType": "uint256",
              "name": "dna",
              "type": "uint256"
            }
          ],
          "internalType": "struct PlantNursery.Plant[]",
          "name": "",
          "type": "tuple[]"
        }
      ],
      "stateMutability": "view",
      "type": "function",
      "constant": true
    },
    {
      "inputs": [
        {
          "internalType": "address",
          "name": "owner",
          "type": "address"
        },
        {
          "internalType": "address",
          "name": "operator",
          "type": "address"
        }
      ],
      "name": "isApprovedForAll",
      "outputs": [
        {
          "internalType": "bool",
          "name": "",
          "type": "bool"
        }
      ],
      "stateMutability": "view",
      "type": "function",
      "constant": true
    },
    {
      "inputs": [],
      "name": "isOwner",
      "outputs": [
        {
          "internalType": "bool",
          "name": "",
          "type": "bool"
        }
      ],
      "stateMutability": "view",
      "type": "function",
      "constant": true
    },
    {
      "inputs": [],
      "name": "name",
      "outputs": [
        {
          "internalType": "string",
          "name": "",
          "type": "string"
        }
      ],
      "stateMutability": "view",
      "type": "function",
      "constant": true
    },
    {
      "inputs": [],
      "name": "owner",
      "outputs": [
        {
          "internalType": "address",
          "name": "",
          "type": "address"
        }
      ],
      "stateMutability": "view",
      "type": "function",
      "constant": true
    },
    {
      "inputs": [
        {
          "internalType": "uint256",
          "name": "tokenId",
          "type": "uint256"
        }
      ],
      "name": "ownerOf",
      "outputs": [
        {
          "internalType": "address",
          "name": "",
          "type": "address"
        }
      ],
      "stateMutability": "view",
      "type": "function",
      "constant": true
    },
    {
      "inputs": [
        {
          "internalType": "uint256",
          "name": "",
          "type": "uint256"
        }
      ],
      "name": "plantToOwner",
      "outputs": [
        {
          "internalType": "address",
          "name": "",
          "type": "address"
        }
      ],
      "stateMutability": "view",
      "type": "function",
      "constant": true
    },
    {
      "inputs": [
        {
          "internalType": "uint256",
          "name": "",
          "type": "uint256"
        }
      ],
      "name": "plants",
      "outputs": [
        {
          "internalType": "uint256",
          "name": "dna",
          "type": "uint256"
        }
      ],
      "stateMutability": "view",
      "type": "function",
      "constant": true
    },
    {
      "inputs": [],
      "name": "renounceOwnership",
      "outputs": [],
      "stateMutability": "nonpayable",
      "type": "function"
    },
    {
      "inputs": [
        {
          "internalType": "address",
          "name": "from",
          "type": "address"
        },
        {
          "internalType": "address",
          "name": "to",
          "type": "address"
        },
        {
          "internalType": "uint256",
          "name": "tokenId",
          "type": "uint256"
        }
      ],
      "name": "safeTransferFrom",
      "outputs": [],
      "stateMutability": "nonpayable",
      "type": "function"
    },
    {
      "inputs": [
        {
          "internalType": "address",
          "name": "from",
          "type": "address"
        },
        {
          "internalType": "address",
          "name": "to",
          "type": "address"
        },
        {
          "internalType": "uint256",
          "name": "tokenId",
          "type": "uint256"
        },
        {
          "internalType": "bytes",
          "name": "_data",
          "type": "bytes"
        }
      ],
      "name": "safeTransferFrom",
      "outputs": [],
      "stateMutability": "nonpayable",
      "type": "function"
    },
    {
      "inputs": [
        {
          "internalType": "address",
          "name": "operator",
          "type": "address"
        },
        {
          "internalType": "bool",
          "name": "approved",
          "type": "bool"
        }
      ],
      "name": "setApprovalForAll",
      "outputs": [],
      "stateMutability": "nonpayable",
      "type": "function"
    },
    {
      "inputs": [
        {
          "internalType": "bytes4",
          "name": "interfaceId",
          "type": "bytes4"
        }
      ],
      "name": "supportsInterface",
      "outputs": [
        {
          "internalType": "bool",
          "name": "",
          "type": "bool"
        }
      ],
      "stateMutability": "view",
      "type": "function",
      "constant": true
    },
    {
      "inputs": [],
      "name": "symbol",
      "outputs": [
        {
          "internalType": "string",
          "name": "",
          "type": "string"
        }
      ],
      "stateMutability": "view",
      "type": "function",
      "constant": true
    },
    {
      "inputs": [
        {
          "internalType": "uint256",
          "name": "tokenId",
          "type": "uint256"
        }
      ],
      "name": "tokenURI",
      "outputs": [
        {
          "internalType": "string",
          "name": "",
          "type": "string"
        }
      ],
      "stateMutability": "view",
      "type": "function",
      "constant": true
    },
    {
      "inputs": [
        {
          "internalType": "address",
          "name": "from",
          "type": "address"
        },
        {
          "internalType": "address",
          "name": "to",
          "type": "address"
        },
        {
          "internalType": "uint256",
          "name": "tokenId",
          "type": "uint256"
        }
      ],
      "name": "transferFrom",
      "outputs": [],
      "stateMutability": "nonpayable",
      "type": "function"
    },
    {
      "inputs": [
        {
          "internalType": "address",
          "name": "newOwner",
          "type": "address"
        }
      ],
      "name": "transferOwnership",
      "outputs": [],
      "stateMutability": "nonpayable",
      "type": "function"
    },
    {
      "inputs": [],
      "name": "withdraw",
      "outputs": [],
      "stateMutability": "nonpayable",
      "type": "function"
    }
  ],
  "bytecode": "0x60806040526010600155600154600a6200001a919062000297565b6002553480156200002a57600080fd5b506040518060400160405280600981526020017f506c616e7453686f7000000000000000000000000000000000000000000000008152506040518060400160405280600381526020017f4e46540000000000000000000000000000000000000000000000000000000000815250336000806101000a81548173ffffffffffffffffffffffffffffffffffffffff021916908373ffffffffffffffffffffffffffffffffffffffff16021790555060008054906101000a900473ffffffffffffffffffffffffffffffffffffffff1673ffffffffffffffffffffffffffffffffffffffff16600073ffffffffffffffffffffffffffffffffffffffff167f8be0079c531659141344cd1fd0a4f28419497f9722a3daafe3b4186f6b6457e060405160405180910390a381600690805190602001906200016a9291906200018c565b508060079080519060200190620001839291906200018c565b5050506200047f565b8280546200019a90620003de565b90600052602060002090601f016020900481019282620001be57600085556200020a565b82601f10620001d957805160ff19168380011785556200020a565b828001600101855582156200020a579182015b8281111562000209578251825591602001919060010190620001ec565b5b5090506200021991906200021d565b5090565b5b80821115620002385760008160009055506001016200021e565b5090565b6000808291508390505b60018511156200028e5780860481111562000266576200026562000414565b5b6001851615620002765780820291505b8081029050620002868562000472565b945062000246565b94509492505050565b6000620002a482620003d4565b9150620002b183620003d4565b9250620002e07fffffffffffffffffffffffffffffffffffffffffffffffffffffffffffffffff8484620002e8565b905092915050565b600082620002fa5760019050620003cd565b816200030a5760009050620003cd565b81600181146200032357600281146200032e5762000364565b6001915050620003cd565b60ff84111562000343576200034262000414565b5b8360020a9150848211156200035d576200035c62000414565b5b50620003cd565b5060208310610133831016604e8410600b84101617156200039e5782820a90508381111562000398576200039762000414565b5b620003cd565b620003ad84848460016200023c565b92509050818404811115620003c757620003c662000414565b5b81810290505b9392505050565b6000819050919050565b60006002820490506001821680620003f757607f821691505b602082108114156200040e576200040d62000443565b5b50919050565b7f4e487b7100000000000000000000000000000000000000000000000000000000600052601160045260246000fd5b7f4e487b7100000000000000000000000000000000000000000000000000000000600052602260045260246000fd5b60008160011c9050919050565b612f0d806200048f6000396000f3fe608060405234801561001057600080fd5b506004361061014d5760003560e01c806370a08231116100c35780639afcad001161007c5780639afcad001461038c578063a22cb465146103bc578063b88d4fde146103d8578063c87b56dd146103f4578063e985e9c514610424578063f2fde38b146104545761014d565b806370a08231146102c8578063715018a6146102f85780638da5cb5b146103025780638dd2361c146103205780638f32d59b1461035057806395d89b411461036e5761014d565b806323b872dd1161011557806323b872dd1461021c5780633ccfd60b1461023857806342842e0e146102425780634fd07a271461025e5780636352211e1461027c5780636ff7c88d146102ac5761014d565b806301ffc9a71461015257806306fdde0314610182578063081812fc146101a0578063095ea7b3146101d05780631123d4de146101ec575b600080fd5b61016c6004803603810190610167919061201f565b610470565b604051610179919061284a565b60405180910390f35b61018a610552565b6040516101979190612865565b60405180910390f35b6101ba60048036038101906101b591906120b2565b6105e4565b6040516101c7919061279f565b60405180910390f35b6101ea60048036038101906101e59190611fe3565b610669565b005b61020660048036038101906102019190611e78565b610781565b6040516102139190612828565b60405180910390f35b61023660048036038101906102319190611edd565b610927565b005b610240610987565b005b61025c60048036038101906102579190611edd565b6109ee565b005b610266610a0e565b6040516102739190612806565b60405180910390f35b610296600480360381019061029191906120b2565b610a73565b6040516102a3919061279f565b60405180910390f35b6102c660048036038101906102c19190612071565b610b25565b005b6102e260048036038101906102dd9190611e78565b610ba5565b6040516102ef9190612a07565b60405180910390f35b610300610c5d565b005b61030a610d2c565b604051610317919061279f565b60405180910390f35b61033a600480360381019061033591906120b2565b610d55565b6040516103479190612a07565b60405180910390f35b610358610d7f565b604051610365919061284a565b60405180910390f35b610376610dd6565b6040516103839190612865565b60405180910390f35b6103a660048036038101906103a191906120b2565b610e68565b6040516103b3919061279f565b60405180910390f35b6103d660048036038101906103d19190611fa7565b610e9b565b005b6103f260048036038101906103ed9190611f2c565b61101c565b005b61040e600480360381019061040991906120b2565b61107e565b60405161041b9190612865565b60405180910390f35b61043e60048036038101906104399190611ea1565b611125565b60405161044b919061284a565b60405180910390f35b61046e60048036038101906104699190611e78565b6111b9565b005b60007f80ac58cd000000000000000000000000000000000000000000000000000000007bffffffffffffffffffffffffffffffffffffffffffffffffffffffff1916827bffffffffffffffffffffffffffffffffffffffffffffffffffffffff1916148061053b57507f5b5e139f000000000000000000000000000000000000000000000000000000007bffffffffffffffffffffffffffffffffffffffffffffffffffffffff1916827bffffffffffffffffffffffffffffffffffffffffffffffffffffffff1916145b8061054b575061054a826111d6565b5b9050919050565b60606006805461056190612d02565b80601f016020809104026020016040519081016040528092919081815260200182805461058d90612d02565b80156105da5780601f106105af576101008083540402835291602001916105da565b820191906000526020600020905b8154815290600101906020018083116105bd57829003601f168201915b5050505050905090565b60006105ef82611240565b61062e576040517f08c379a000000000000000000000000000000000000000000000000000000000815260040161062590612967565b60405180910390fd5b600a600083815260200190815260200160002060009054906101000a900473ffffffffffffffffffffffffffffffffffffffff169050919050565b600061067482610a73565b90508073ffffffffffffffffffffffffffffffffffffffff168373ffffffffffffffffffffffffffffffffffffffff1614156106e5576040517f08c379a00000000000000000000000000000000000000000000000000000000081526004016106dc906129c7565b60405180910390fd5b8073ffffffffffffffffffffffffffffffffffffffff166107046112ac565b73ffffffffffffffffffffffffffffffffffffffff16148061073357506107328161072d6112ac565b611125565b5b610772576040517f08c379a000000000000000000000000000000000000000000000000000000000815260040161076990612907565b60405180910390fd5b61077c83836112b4565b505050565b60606000600560008473ffffffffffffffffffffffffffffffffffffffff1673ffffffffffffffffffffffffffffffffffffffff1681526020019081526020016000205467ffffffffffffffff811115610804577f4e487b7100000000000000000000000000000000000000000000000000000000600052604160045260246000fd5b6040519080825280602002602001820160405280156108325781602001602082028036833780820191505090505b5090506000805b60038054905081101561091c578473ffffffffffffffffffffffffffffffffffffffff166004600083815260200190815260200160002060009054906101000a900473ffffffffffffffffffffffffffffffffffffffff1673ffffffffffffffffffffffffffffffffffffffff16141561090957808383815181106108e7577f4e487b7100000000000000000000000000000000000000000000000000000000600052603260045260246000fd5b60200260200101818152505061090760018361136d90919063ffffffff16565b505b808061091490612d34565b915050610839565b508192505050919050565b6109386109326112ac565b826113bf565b610977576040517f08c379a000000000000000000000000000000000000000000000000000000000815260040161096e906129e7565b60405180910390fd5b61098283838361149d565b505050565b61098f610d7f565b61099857600080fd5b60006109a2610d2c565b90508073ffffffffffffffffffffffffffffffffffffffff166108fc479081150290604051600060405180830381858888f193505050501580156109ea573d6000803e3d6000fd5b5050565b610a098383836040518060200160405280600081525061101c565b505050565b60606003805480602002602001604051908101604052809291908181526020016000905b82821015610a6a5783829060005260206000200160405180602001604052908160008201548152505081526020019060010190610a32565b50505050905090565b6000806008600084815260200190815260200160002060009054906101000a900473ffffffffffffffffffffffffffffffffffffffff169050600073ffffffffffffffffffffffffffffffffffffffff168173ffffffffffffffffffffffffffffffffffffffff161415610b1c576040517f08c379a0000000000000000000000000000000000000000000000000000000008152600401610b1390612947565b60405180910390fd5b80915050919050565b6000600560003373ffffffffffffffffffffffffffffffffffffffff1673ffffffffffffffffffffffffffffffffffffffff1681526020019081526020016000205414610b7157600080fd5b6000610b7c826116f9565b9050606481610b8b9190612d7d565b81610b969190612c18565b9050610ba18161173e565b5050565b60008073ffffffffffffffffffffffffffffffffffffffff168273ffffffffffffffffffffffffffffffffffffffff161415610c16576040517f08c379a0000000000000000000000000000000000000000000000000000000008152600401610c0d90612927565b60405180910390fd5b600960008373ffffffffffffffffffffffffffffffffffffffff1673ffffffffffffffffffffffffffffffffffffffff168152602001908152602001600020549050919050565b610c65610d7f565b610c6e57600080fd5b600073ffffffffffffffffffffffffffffffffffffffff1660008054906101000a900473ffffffffffffffffffffffffffffffffffffffff1673ffffffffffffffffffffffffffffffffffffffff167f8be0079c531659141344cd1fd0a4f28419497f9722a3daafe3b4186f6b6457e060405160405180910390a360008060006101000a81548173ffffffffffffffffffffffffffffffffffffffff021916908373ffffffffffffffffffffffffffffffffffffffff160217905550565b60008060009054906101000a900473ffffffffffffffffffffffffffffffffffffffff16905090565b60038181548110610d6557600080fd5b906000526020600020016000915090508060000154905081565b60008060009054906101000a900473ffffffffffffffffffffffffffffffffffffffff1673ffffffffffffffffffffffffffffffffffffffff163373ffffffffffffffffffffffffffffffffffffffff1614905090565b606060078054610de590612d02565b80601f0160208091040260200160405190810160405280929190818152602001828054610e1190612d02565b8015610e5e5780601f10610e3357610100808354040283529160200191610e5e565b820191906000526020600020905b815481529060010190602001808311610e4157829003601f168201915b5050505050905090565b60046020528060005260406000206000915054906101000a900473ffffffffffffffffffffffffffffffffffffffff1681565b610ea36112ac565b73ffffffffffffffffffffffffffffffffffffffff168273ffffffffffffffffffffffffffffffffffffffff161415610f11576040517f08c379a0000000000000000000000000000000000000000000000000000000008152600401610f08906128c7565b60405180910390fd5b80600b6000610f1e6112ac565b73ffffffffffffffffffffffffffffffffffffffff1673ffffffffffffffffffffffffffffffffffffffff16815260200190815260200160002060008473ffffffffffffffffffffffffffffffffffffffff1673ffffffffffffffffffffffffffffffffffffffff16815260200190815260200160002060006101000a81548160ff0219169083151502179055508173ffffffffffffffffffffffffffffffffffffffff16610fcb6112ac565b73ffffffffffffffffffffffffffffffffffffffff167f17307eab39ab6107e8899845ad3d59bd9653f200f220920489ca2b5937696c3183604051611010919061284a565b60405180910390a35050565b61102d6110276112ac565b836113bf565b61106c576040517f08c379a0000000000000000000000000000000000000000000000000000000008152600401611063906129e7565b60405180910390fd5b61107884848484611879565b50505050565b606061108982611240565b6110c8576040517f08c379a00000000000000000000000000000000000000000000000000000000081526004016110bf906129a7565b60405180910390fd5b60006110d26118d5565b905060008151116110f2576040518060200160405280600081525061111d565b806110fc846118ec565b60405160200161110d92919061277b565b6040516020818303038152906040525b915050919050565b6000600b60008473ffffffffffffffffffffffffffffffffffffffff1673ffffffffffffffffffffffffffffffffffffffff16815260200190815260200160002060008373ffffffffffffffffffffffffffffffffffffffff1673ffffffffffffffffffffffffffffffffffffffff16815260200190815260200160002060009054906101000a900460ff16905092915050565b6111c1610d7f565b6111ca57600080fd5b6111d381611a99565b50565b60007f01ffc9a7000000000000000000000000000000000000000000000000000000007bffffffffffffffffffffffffffffffffffffffffffffffffffffffff1916827bffffffffffffffffffffffffffffffffffffffffffffffffffffffff1916149050919050565b60008073ffffffffffffffffffffffffffffffffffffffff166008600084815260200190815260200160002060009054906101000a900473ffffffffffffffffffffffffffffffffffffffff1673ffffffffffffffffffffffffffffffffffffffff1614159050919050565b600033905090565b81600a600083815260200190815260200160002060006101000a81548173ffffffffffffffffffffffffffffffffffffffff021916908373ffffffffffffffffffffffffffffffffffffffff160217905550808273ffffffffffffffffffffffffffffffffffffffff1661132783610a73565b73ffffffffffffffffffffffffffffffffffffffff167f8c5be1e5ebec7d5bd14f71427d1e84f3dd0314c0f7b2291e5b200ac8c7c3b92560405160405180910390a45050565b600080828461137c9190612b91565b9050838110156113b5577f4e487b7100000000000000000000000000000000000000000000000000000000600052600160045260246000fd5b8091505092915050565b60006113ca82611240565b611409576040517f08c379a0000000000000000000000000000000000000000000000000000000008152600401611400906128e7565b60405180910390fd5b600061141483610a73565b90508073ffffffffffffffffffffffffffffffffffffffff168473ffffffffffffffffffffffffffffffffffffffff16148061148357508373ffffffffffffffffffffffffffffffffffffffff1661146b846105e4565b73ffffffffffffffffffffffffffffffffffffffff16145b8061149457506114938185611125565b5b91505092915050565b8273ffffffffffffffffffffffffffffffffffffffff166114bd82610a73565b73ffffffffffffffffffffffffffffffffffffffff1614611513576040517f08c379a000000000000000000000000000000000000000000000000000000000815260040161150a90612987565b60405180910390fd5b600073ffffffffffffffffffffffffffffffffffffffff168273ffffffffffffffffffffffffffffffffffffffff161415611583576040517f08c379a000000000000000000000000000000000000000000000000000000000815260040161157a906128a7565b60405180910390fd5b61158e838383611b90565b6115996000826112b4565b6001600960008573ffffffffffffffffffffffffffffffffffffffff1673ffffffffffffffffffffffffffffffffffffffff16815260200190815260200160002060008282546115e99190612c18565b925050819055506001600960008473ffffffffffffffffffffffffffffffffffffffff1673ffffffffffffffffffffffffffffffffffffffff16815260200190815260200160002060008282546116409190612b91565b92505081905550816008600083815260200190815260200160002060006101000a81548173ffffffffffffffffffffffffffffffffffffffff021916908373ffffffffffffffffffffffffffffffffffffffff160217905550808273ffffffffffffffffffffffffffffffffffffffff168473ffffffffffffffffffffffffffffffffffffffff167fddf252ad1be2c89b69c2b068fc378daa952ba7f163c4a11628f55a4df523b3ef60405160405180910390a4505050565b6000808260405160200161170d9190612764565b6040516020818303038152906040528051906020012060001c9050600254816117369190612d7d565b915050919050565b600360405180602001604052808381525090806001815401808255809150506001900390600052602060002001600090919091909150600082015181600001555050600060016003805490506117949190612c18565b9050336004600083815260200190815260200160002060006101000a81548173ffffffffffffffffffffffffffffffffffffffff021916908373ffffffffffffffffffffffffffffffffffffffff16021790555061183b6001600560003373ffffffffffffffffffffffffffffffffffffffff1673ffffffffffffffffffffffffffffffffffffffff1681526020019081526020016000205461136d90919063ffffffff16565b507f41e789ec18879325a978a68acbca4bb202fb081eea29445662c30c61ad40c832818360405161186d929190612a22565b60405180910390a15050565b61188484848461149d565b61189084848484611b95565b6118cf576040517f08c379a00000000000000000000000000000000000000000000000000000000081526004016118c690612887565b60405180910390fd5b50505050565b606060405180602001604052806000815250905090565b60606000821415611934576040518060400160405280600181526020017f30000000000000000000000000000000000000000000000000000000000000008152509050611a94565b600082905060005b6000821461196657808061194f90612d34565b915050600a8261195f9190612be7565b915061193c565b60008167ffffffffffffffff8111156119a8577f4e487b7100000000000000000000000000000000000000000000000000000000600052604160045260246000fd5b6040519080825280601f01601f1916602001820160405280156119da5781602001600182028036833780820191505090505b5090505b60008514611a8d576001826119f39190612c18565b9150600a85611a029190612d7d565b6030611a0e9190612b91565b60f81b818381518110611a4a577f4e487b7100000000000000000000000000000000000000000000000000000000600052603260045260246000fd5b60200101907effffffffffffffffffffffffffffffffffffffffffffffffffffffffffffff1916908160001a905350600a85611a869190612be7565b94506119de565b8093505050505b919050565b600073ffffffffffffffffffffffffffffffffffffffff168173ffffffffffffffffffffffffffffffffffffffff161415611ad357600080fd5b8073ffffffffffffffffffffffffffffffffffffffff1660008054906101000a900473ffffffffffffffffffffffffffffffffffffffff1673ffffffffffffffffffffffffffffffffffffffff167f8be0079c531659141344cd1fd0a4f28419497f9722a3daafe3b4186f6b6457e060405160405180910390a3806000806101000a81548173ffffffffffffffffffffffffffffffffffffffff021916908373ffffffffffffffffffffffffffffffffffffffff16021790555050565b505050565b6000611bb68473ffffffffffffffffffffffffffffffffffffffff16611d2c565b15611d1f578373ffffffffffffffffffffffffffffffffffffffff1663150b7a02611bdf6112ac565b8786866040518563ffffffff1660e01b8152600401611c0194939291906127ba565b602060405180830381600087803b158015611c1b57600080fd5b505af1925050508015611c4c57506040513d601f19601f82011682018060405250810190611c499190612048565b60015b611ccf573d8060008114611c7c576040519150601f19603f3d011682016040523d82523d6000602084013e611c81565b606091505b50600081511415611cc7576040517f08c379a0000000000000000000000000000000000000000000000000000000008152600401611cbe90612887565b60405180910390fd5b805181602001fd5b63150b7a0260e01b7bffffffffffffffffffffffffffffffffffffffffffffffffffffffff1916817bffffffffffffffffffffffffffffffffffffffffffffffffffffffff191614915050611d24565b600190505b949350505050565b600080823b905060008111915050919050565b6000611d52611d4d84612a7c565b612a4b565b905082815260208101848484011115611d6a57600080fd5b611d75848285612cc0565b509392505050565b6000611d90611d8b84612aac565b612a4b565b905082815260208101848484011115611da857600080fd5b611db3848285612cc0565b509392505050565b600081359050611dca81612e7b565b92915050565b600081359050611ddf81612e92565b92915050565b600081359050611df481612ea9565b92915050565b600081519050611e0981612ea9565b92915050565b600082601f830112611e2057600080fd5b8135611e30848260208601611d3f565b91505092915050565b600082601f830112611e4a57600080fd5b8135611e5a848260208601611d7d565b91505092915050565b600081359050611e7281612ec0565b92915050565b600060208284031215611e8a57600080fd5b6000611e9884828501611dbb565b91505092915050565b60008060408385031215611eb457600080fd5b6000611ec285828601611dbb565b9250506020611ed385828601611dbb565b9150509250929050565b600080600060608486031215611ef257600080fd5b6000611f0086828701611dbb565b9350506020611f1186828701611dbb565b9250506040611f2286828701611e63565b9150509250925092565b60008060008060808587031215611f4257600080fd5b6000611f5087828801611dbb565b9450506020611f6187828801611dbb565b9350506040611f7287828801611e63565b925050606085013567ffffffffffffffff811115611f8f57600080fd5b611f9b87828801611e0f565b91505092959194509250565b60008060408385031215611fba57600080fd5b6000611fc885828601611dbb565b9250506020611fd985828601611dd0565b9150509250929050565b60008060408385031215611ff657600080fd5b600061200485828601611dbb565b925050602061201585828601611e63565b9150509250929050565b60006020828403121561203157600080fd5b600061203f84828501611de5565b91505092915050565b60006020828403121561205a57600080fd5b600061206884828501611dfa565b91505092915050565b60006020828403121561208357600080fd5b600082013567ffffffffffffffff81111561209d57600080fd5b6120a984828501611e39565b91505092915050565b6000602082840312156120c457600080fd5b60006120d284828501611e63565b91505092915050565b60006120e7838361272a565b60208301905092915050565b60006120ff8383612746565b60208301905092915050565b61211481612c4c565b82525050565b600061212582612afc565b61212f8185612b42565b935061213a83612adc565b8060005b8381101561216b57815161215288826120db565b975061215d83612b28565b92505060018101905061213e565b5085935050505092915050565b600061218382612b07565b61218d8185612b53565b935061219883612aec565b8060005b838110156121c95781516121b088826120f3565b97506121bb83612b35565b92505060018101905061219c565b5085935050505092915050565b6121df81612c5e565b82525050565b60006121f082612b12565b6121fa8185612b64565b935061220a818560208601612ccf565b61221381612e6a565b840191505092915050565b600061222982612b1d565b6122338185612b75565b9350612243818560208601612ccf565b61224c81612e6a565b840191505092915050565b600061226282612b1d565b61226c8185612b86565b935061227c818560208601612ccf565b80840191505092915050565b6000612295603283612b75565b91507f4552433732313a207472616e7366657220746f206e6f6e20455243373231526560008301527f63656976657220696d706c656d656e74657200000000000000000000000000006020830152604082019050919050565b60006122fb602483612b75565b91507f4552433732313a207472616e7366657220746f20746865207a65726f2061646460008301527f72657373000000000000000000000000000000000000000000000000000000006020830152604082019050919050565b6000612361601983612b75565b91507f4552433732313a20617070726f766520746f2063616c6c6572000000000000006000830152602082019050919050565b60006123a1602c83612b75565b91507f4552433732313a206f70657261746f7220717565727920666f72206e6f6e657860008301527f697374656e7420746f6b656e00000000000000000000000000000000000000006020830152604082019050919050565b6000612407603883612b75565b91507f4552433732313a20617070726f76652063616c6c6572206973206e6f74206f7760008301527f6e6572206e6f7220617070726f76656420666f7220616c6c00000000000000006020830152604082019050919050565b600061246d602a83612b75565b91507f4552433732313a2062616c616e636520717565727920666f7220746865207a6560008301527f726f2061646472657373000000000000000000000000000000000000000000006020830152604082019050919050565b60006124d3602983612b75565b91507f4552433732313a206f776e657220717565727920666f72206e6f6e657869737460008301527f656e7420746f6b656e00000000000000000000000000000000000000000000006020830152604082019050919050565b6000612539602c83612b75565b91507f4552433732313a20617070726f76656420717565727920666f72206e6f6e657860008301527f697374656e7420746f6b656e00000000000000000000000000000000000000006020830152604082019050919050565b600061259f602983612b75565b91507f4552433732313a207472616e73666572206f6620746f6b656e2074686174206960008301527f73206e6f74206f776e00000000000000000000000000000000000000000000006020830152604082019050919050565b6000612605602f83612b75565b91507f4552433732314d657461646174613a2055524920717565727920666f72206e6f60008301527f6e6578697374656e7420746f6b656e00000000000000000000000000000000006020830152604082019050919050565b600061266b602183612b75565b91507f4552433732313a20617070726f76616c20746f2063757272656e74206f776e6560008301527f72000000000000000000000000000000000000000000000000000000000000006020830152604082019050919050565b60006126d1603183612b75565b91507f4552433732313a207472616e736665722063616c6c6572206973206e6f74206f60008301527f776e6572206e6f7220617070726f7665640000000000000000000000000000006020830152604082019050919050565b6020820160008201516127406000850182612746565b50505050565b61274f81612cb6565b82525050565b61275e81612cb6565b82525050565b60006127708284612257565b915081905092915050565b60006127878285612257565b91506127938284612257565b91508190509392505050565b60006020820190506127b4600083018461210b565b92915050565b60006080820190506127cf600083018761210b565b6127dc602083018661210b565b6127e96040830185612755565b81810360608301526127fb81846121e5565b905095945050505050565b60006020820190508181036000830152612820818461211a565b905092915050565b600060208201905081810360008301526128428184612178565b905092915050565b600060208201905061285f60008301846121d6565b92915050565b6000602082019050818103600083015261287f818461221e565b905092915050565b600060208201905081810360008301526128a081612288565b9050919050565b600060208201905081810360008301526128c0816122ee565b9050919050565b600060208201905081810360008301526128e081612354565b9050919050565b6000602082019050818103600083015261290081612394565b9050919050565b60006020820190508181036000830152612920816123fa565b9050919050565b6000602082019050818103600083015261294081612460565b9050919050565b60006020820190508181036000830152612960816124c6565b9050919050565b600060208201905081810360008301526129808161252c565b9050919050565b600060208201905081810360008301526129a081612592565b9050919050565b600060208201905081810360008301526129c0816125f8565b9050919050565b600060208201905081810360008301526129e08161265e565b9050919050565b60006020820190508181036000830152612a00816126c4565b9050919050565b6000602082019050612a1c6000830184612755565b92915050565b6000604082019050612a376000830185612755565b612a446020830184612755565b9392505050565b6000604051905081810181811067ffffffffffffffff82111715612a7257612a71612e3b565b5b8060405250919050565b600067ffffffffffffffff821115612a9757612a96612e3b565b5b601f19601f8301169050602081019050919050565b600067ffffffffffffffff821115612ac757612ac6612e3b565b5b601f19601f8301169050602081019050919050565b6000819050602082019050919050565b6000819050602082019050919050565b600081519050919050565b600081519050919050565b600081519050919050565b600081519050919050565b6000602082019050919050565b6000602082019050919050565b600082825260208201905092915050565b600082825260208201905092915050565b600082825260208201905092915050565b600082825260208201905092915050565b600081905092915050565b6000612b9c82612cb6565b9150612ba783612cb6565b9250827fffffffffffffffffffffffffffffffffffffffffffffffffffffffffffffffff03821115612bdc57612bdb612dae565b5b828201905092915050565b6000612bf282612cb6565b9150612bfd83612cb6565b925082612c0d57612c0c612ddd565b5b828204905092915050565b6000612c2382612cb6565b9150612c2e83612cb6565b925082821015612c4157612c40612dae565b5b828203905092915050565b6000612c5782612c96565b9050919050565b60008115159050919050565b60007fffffffff0000000000000000000000000000000000000000000000000000000082169050919050565b600073ffffffffffffffffffffffffffffffffffffffff82169050919050565b6000819050919050565b82818337600083830152505050565b60005b83811015612ced578082015181840152602081019050612cd2565b83811115612cfc576000848401525b50505050565b60006002820490506001821680612d1a57607f821691505b60208210811415612d2e57612d2d612e0c565b5b50919050565b6000612d3f82612cb6565b91507fffffffffffffffffffffffffffffffffffffffffffffffffffffffffffffffff821415612d7257612d71612dae565b5b600182019050919050565b6000612d8882612cb6565b9150612d9383612cb6565b925082612da357612da2612ddd565b5b828206905092915050565b7f4e487b7100000000000000000000000000000000000000000000000000000000600052601160045260246000fd5b7f4e487b7100000000000000000000000000000000000000000000000000000000600052601260045260246000fd5b7f4e487b7100000000000000000000000000000000000000000000000000000000600052602260045260246000fd5b7f4e487b7100000000000000000000000000000000000000000000000000000000600052604160045260246000fd5b6000601f19601f8301169050919050565b612e8481612c4c565b8114612e8f57600080fd5b50565b612e9b81612c5e565b8114612ea657600080fd5b50565b612eb281612c6a565b8114612ebd57600080fd5b50565b612ec981612cb6565b8114612ed457600080fd5b5056fea2646970667358221220226b57f218e971a21deda77b3283f83485d01bc89c5084de2af157e7df78935c64736f6c63430008000033",
  "immutableReferences": {},
  "source": "pragma solidity ^0.8.0;\n\nimport \"./planthelper.sol\";\nimport \"@openzeppelin/contracts/token/ERC721/ERC721.sol\";\n\ncontract PlantShop is PlantHelper, ERC721 {\n    constructor() ERC721(\"PlantShop\", \"NFT\") {}\n}\n",
  "sourcePath": "/Users/alanswenson/projects/plantshop-contract/contracts/PlantShop.sol",
  "compiler": {
    "name": "solc",
    "version": "0.8.0+commit.c7dfd78e.Emscripten.clang"
  },
  "schemaVersion": "3.4.3",
  "updatedAt": "2021-09-10T02:39:06.938Z",
  "networkType": "ethereum",
  "devdoc": {
    "kind": "dev",
    "methods": {
      "approve(address,uint256)": {
        "details": "See {IERC721-approve}."
      },
      "balanceOf(address)": {
        "details": "See {IERC721-balanceOf}."
      },
      "getApproved(uint256)": {
        "details": "See {IERC721-getApproved}."
      },
      "isApprovedForAll(address,address)": {
        "details": "See {IERC721-isApprovedForAll}."
      },
      "isOwner()": {
        "returns": {
          "_0": "true if `msg.sender` is the owner of the contract."
        }
      },
      "name()": {
        "details": "See {IERC721Metadata-name}."
      },
      "owner()": {
        "returns": {
          "_0": "the address of the owner."
        }
      },
      "ownerOf(uint256)": {
        "details": "See {IERC721-ownerOf}."
      },
      "renounceOwnership()": {
        "details": "Allows the current owner to relinquish control of the contract."
      },
      "safeTransferFrom(address,address,uint256)": {
        "details": "See {IERC721-safeTransferFrom}."
      },
      "safeTransferFrom(address,address,uint256,bytes)": {
        "details": "See {IERC721-safeTransferFrom}."
      },
      "setApprovalForAll(address,bool)": {
        "details": "See {IERC721-setApprovalForAll}."
      },
      "supportsInterface(bytes4)": {
        "details": "See {IERC165-supportsInterface}."
      },
      "symbol()": {
        "details": "See {IERC721Metadata-symbol}."
      },
      "tokenURI(uint256)": {
        "details": "See {IERC721Metadata-tokenURI}."
      },
      "transferFrom(address,address,uint256)": {
        "details": "See {IERC721-transferFrom}."
      },
      "transferOwnership(address)": {
        "details": "Allows the current owner to transfer control of the contract to a newOwner.",
        "params": {
          "newOwner": "The address to transfer ownership to."
        }
      }
    },
    "version": 1
  },
  "userdoc": {
    "kind": "user",
    "methods": {
      "renounceOwnership()": {
        "notice": "Renouncing to ownership will leave the contract without an owner. It will not be possible to call the functions with the `onlyOwner` modifier anymore."
      }
    },
    "version": 1
  }
}